:020000040800F2
:1000000000500020A10500088D0400088F0400089E
:100010009104000893040008950400080000000003
:10002000000000000000000000000000211900088E
:100030009704000800000000C1190008F51400082A
:10004000E9050008E9050008E9050008E9050008D8
:10005000E9050008E9050008E9050008E9050008C8
:10006000E9050008E9050008E9050008E9050008B8
:10007000E9050008E9050008E9050008E9050008A8
:10008000E9050008E9050008E9050008E905000898
:10009000E9050008E9050008E9050008E905000888
:1000A000E9050008E9050008E9050008E905000878
:1000B000E9050008E905000899040008E9050008B9
:1000C000E9050008E9050008E9050008E905000858
:1000D000E9050008E9050008E9050008E905000848
:1000E000E9050008E9050008E9050008000000002E
:1000F0000000000000000000000000000000000000
:0C01000000000000000000005FF808F1A3
:10011000034613F8012B002AFBD1181A0138704747
:100120000348044B834202D0034B03B11847704786
:100130006000002060000020000000000548064B21
:100140001B1AD90F01EBA301491002D0034B03B1D5
:100150001847704760000020600000200000000089
:1001600010B5064C237843B9FFF7DAFF044B13B1FF
:100170000448AFF300800123237010BD600000200D
:1001800000000000FC3C000808B5054B1BB1054908
:100190000548AFF30080BDE80840FFF7CFBF00BFC0
:1001A0000000000064000020FC3C000800B583B0A3
:1001B0000023009309E00A2001F030FA4FF4805147
:1001C000124800F0A5FB0028F5D04FF480510F48ED
:1001D00000F09EFBA8B90A2001F020FA4FF48051EC
:1001E0000A4800F095FB0028E8D1009B01330093FA
:1001F0004FF0FF33002269460548006801F068FAB5
:10020000DCE70A2001F00AFADFE700BF000C01403A
:100210007C00002030B591B000254FF0FF33002264
:1002200001A90D48006801F095FA01354FF47A7084
:1002300001F0F4F903AC2B46019A0849204603F07B
:10024000A5F82046FFF764FF4FF0FF3382B2214646
:10025000034801F0EAF8E0E77C000020143D0008C4
:10026000D400002008B50B4A0421102001F0E4F965
:10027000094B1860094A0021094801F075F9094B3A
:100280001860094A0021094801F06EF9084B18600E
:1002900008BD00BF6C3D00087C000020A83D0008A0
:1002A000AD01000884000020843D0008150200080C
:1002B0008000002000B587B002A9002302934B60A4
:1002C0008B60CB6003F1804303F504339A6942F0FD
:1002D00004029A619A6902F004020092009A9A69F3
:1002E00042F008029A619B6903F008030193019BA5
:1002F0004FF480530293034800F000FA07B05DF812
:1003000004FB00BF000C014008B50268034B9A4291
:1003100000D008BD00F07CF9FBE700BF00080040FA
:1003200072B6FEE710B590B006AC28220021204638
:1003300003F04EF800230193029303930493059373
:100340000223069301230A9310230B93204600F007
:10035000FDFA60B90F2301930021029103910491EA
:10036000059101A800F024FD18B910B010BDFFF7E9
:10037000D7FFFFF7D5FF08B500F038F9FFF7D2FF38
:10038000FFF798FF00F0B6F801F0C0F8FFF76AFF3A
:1003900001F0CEF8FEE7000000B583B0114B9A697A
:1003A00042F001029A619A6902F001020092009AF9
:1003B000DA6942F08052DA61DB6903F0805301931D
:1003C000019B00220F216FF0010000F079F9064A2D
:1003D000536823F0E06343F00073536003B05DF8AB
:1003E00004FB00BF001002400000014030B589B09E
:1003F0000446214BDA6942F00402DA61DB6903F05A
:1004000004030193019B02A903A800F0ADFD069B24
:10041000CBB900F089FD0346184AA2FB03239B0CCD
:10042000013B1748174A026040F2E732C26043605E
:10043000002303618360836100F0DEFE054630B176
:10044000284609B030BD00F06FFD4300E4E70C48DA
:1004500000F0AAFD05460028F2D11E2000F040F968
:100460000F2C01D90125EBE7002221461E2000F0C8
:1004700027F9054B1C60E3E70010024083DE1B43B5
:10048000880000200008004008000020FEE7FEE78A
:10049000FEE7FEE7FEE7704708B5024800F0BAFD48
:1004A00008BD00BF8800002010B503460C4A0D4966
:1004B0000D48006840B10C4800680344521A93424A
:1004C00006D8094A136010BD0748084C0460F2E7DB
:1004D00002F086FF0C2303604FF0FF30F3E700BF0C
:1004E0000050002000040000D0000020B81B0020B5
:1004F0007047000008B50A480A4B03604FF4E13327
:10050000436000238360C36003610C224261836106
:10051000C36100F05AFF00B908BDFFF701FFFBE718
:10052000D40000200044004030B587B0002302937F
:100530000393049305930268174B9A4201D007B0C6
:1005400030BD03F5E633DA6942F40032DA61DA6984
:1005500002F400320092009A9A6942F004029A6111
:100560009B6903F004030193019B0423029302237C
:1005700003930323059302AD084C2946204600F05F
:10058000BDF80823029300230393049329462046D1
:1005900000F0B4F8D3E700BF004400400008014079
:1005A000FFF7A6FF0B480C490C4A002302E0D45881
:1005B000C4500433C4188C42F9D3094A094C0023AF
:1005C00001E013600432A242FBD302F00FFFFFF7F9
:1005D000D2FE704700000020600000203C3E000872
:1005E00060000020B81B0020FEE7000008B5074AA5
:1005F000136843F010031360032000F04FF80F203E
:10060000FFF7F4FEFFF7C8FE002008BD00200240FF
:10061000034A1168034B1B780B441360704700BFFB
:100620001C01002004000020014B1868704700BF27
:100630001C010020002808DB0901C9B200F160405C
:1006400000F5614080F80013704700F00F000901C9
:10065000C9B2014B1954704714ED00E000B500F029
:100660000700C0F1070CBCF1040F28BF4FF0040CC9
:10067000031D062B0FD9C31E4FF0FF3E0EFA0CF0E0
:1006800021EA000199400EFA03FE22EA0E0241EA35
:1006900002005DF804FB0023EEE70000074AD36880
:1006A00023F4E0631B041B0C000200F4E06003432E
:1006B00043F0BF6343F40033D360704700ED00E0C4
:1006C00010B50446054BD868C0F30220FFF7C6FFFB
:1006D00001462046FFF7AEFF10BD00BF00ED00E071
:1006E000002807DB00F01F02400901239340024A63
:1006F00042F82030704700BF00E100E070B582B0E2
:100700000024A4469EE07C4DAB4214D00CD8A5F545
:100710008015AB420FD005F57025AB420BD0A5F587
:100720008015AB421FD106E0744DAB4203D005F5F6
:100730008035AB4217D18B68A3B1012B0DD042613C
:10074000082410E0CC680EE0CC6804340BE0CC68E0
:10075000083408E0CC680C3405E00261082402E0AB
:10076000002400E00424BEF1FF0F37D806464FEA0C
:100770008C0233680F25954023EA050304FA02F240
:10078000134333604B6813F0805F59D05C4B9A6918
:1007900042F001029A619B6903F001030193019BFE
:1007A0004FEA9C02951C574B53F825600CF003054B
:1007B000AD000F23AB4026EA0306534B984214D0FA
:1007C00003F58063984279D003F58063984277D02F
:1007D00003F58063984206D0042307E0061DACF1C0
:1007E00008029200C5E7032300E00023AB40334337
:1007F0000232444D45F822304B6813F4801F61D01B
:10080000424A936843EA0E0393604B6813F4001F57
:100810005ED03E4AD36843EA0E03D3604B6813F4BC
:10082000003F5BD0394A536843EA0E0353604B687C
:1008300013F4803F58D0354A136843EA0E0313601F
:100840000CF1010C0B6833FA0CF253D0012202FABE
:100850000CF203EA020E32EA0303F1D14B68122BC9
:100860003FF651AF122B3FF67EAF01A555F823F0AE
:1008700037070008450700084F0700086107000810
:100880006707000867070008670700086707000890
:100890006707000867070008670700086707000880
:1008A0006707000867070008670700086707000870
:1008B000670700084907000855070008012395E766
:1008C000022393E7114A936823EA0E0393609CE79F
:1008D0000E4AD36823EA0E03D3609FE70B4A53689E
:1008E00023EA0E035360A2E7084A136823EA0E03C3
:1008F0001360A5E702B070BD0000221000003110A7
:1009000000100240000001400008014000040140C6
:100910008368194201D00120704700207047000011
:1009200082B0084B1B68084AA2FB03235B0A00FB4A
:1009300003F3019300BF019B5A1E0192002BF9D1D2
:1009400002B0704700000020D34D6210002800F074
:10095000F18170B582B00446036813F0010F2CD00A
:10096000994B5B6803F00C03042B1DD0964B5B681E
:1009700003F00C03082B12D06368B3F5803F41D01D
:10098000002B55D103F1804303F504331A6822F498
:1009900080321A601A6822F480221A6037E08A4B8B
:1009A0005B6813F4803FE7D0874B1B6813F4003F6C
:1009B00003D06368002B00F0BF81236813F0020F9F
:1009C00075D0814B5B6813F00C0F5FD07E4B5B687A
:1009D00003F00C03082B54D02369002B00F08A800D
:1009E0007A4B01221A60FFF71FFE0546764B1B6803
:1009F00013F0020F75D1FFF717FE401B0228F5D93F
:100A000003209EE1704A136843F4803313606368E7
:100A100043B3FFF709FE05466B4B1B6813F4003F19
:100A2000CBD1FFF701FE401B6428F5D9032088E1F4
:100A3000B3F5A02F09D0644B1A6822F480321A60F3
:100A40001A6822F480221A60E1E703F18043A3F5DB
:100A50003C331A6842F480221A601A6842F48032E9
:100A60001A60D4E7FFF7E0FD0546574B1B6813F407
:100A7000003FA2D0FFF7D8FD401B6428F5D9032022
:100A80005FE1514B5B6813F4803FA5D14E4B1B686F
:100A900013F0020F03D02369012B40F04F814A4A23
:100AA000136823F0F803616943EAC1031360236804
:100AB00013F0080F33D0A369002B5CD0434B012205
:100AC000C3F88024FFF7B0FD05463F4B5B6A13F087
:100AD000020F21D1FFF7A8FD401B0228F5D9032002
:100AE0002FE1394A136823F0F803616943EAC1032F
:100AF0001360DCE7354B00221A60FFF795FD0546D1
:100B0000314B1B6813F0020FD1D0FFF78DFD401B56
:100B10000228F5D9032014E10120FFF701FF236823
:100B200013F0040F00F09680274BDB6913F0805F11
:100B300034D1254BDA6942F08052DA61DB6903F087
:100B400080530193019B0125214B1B6813F4807F87
:100B500026D0E368012B3DD0002B53D103F1804315
:100B600003F504331A6A22F001021A621A6A22F0AB
:100B700004021A6233E0154B0022C3F88024FFF709
:100B800053FD0546104B5B6A13F0020FC7D0FFF709
:100B90004BFD401B0228F5D90320D2E00025D3E706
:100BA0000B4A136843F480731360FFF73DFD06465C
:100BB000074B1B6813F4807FCBD1FFF735FD801BFB
:100BC0006428F5D90320BCE0001002400000424236
:100BD000007000405F4A136A43F001031362E36848
:100BE00033B3FFF721FD06465A4B1B6A13F0020F81
:100BF0002FD1FFF719FD801B41F288339842F3D9BA
:100C000003209EE0052B09D0524B1A6A22F0010204
:100C10001A621A6A22F004021A62E0E74D4B1A6A5D
:100C200042F004021A621A6A42F001021A62D6E71E
:100C3000FFF7FAFC0646474B1B6A13F0020F08D079
:100C4000FFF7F2FC801B41F288339842F3D903206E
:100C500077E0E5B9E369002B72D03E4A526802F0B2
:100C60000C02082A56D0022B17D03B4B00221A66E2
:100C7000FFF7DAFC0446374B1B6813F0007F47D0C0
:100C8000FFF7D2FC001B0228F5D9032059E0314AB6
:100C9000D36923F08053D361DCE72F4B00221A661F
:100CA000FFF7C2FC05462B4B1B6813F0007F06D0F4
:100CB000FFF7BAFC401B0228F5D9032041E0236A64
:100CC000B3F5803F1AD023494B6823F47413226A8A
:100CD000606A024313434B601F4B01221A66FFF701
:100CE000A3FC04461B4B1B6813F0007F0ED1FFF7DB
:100CF0009BFC001B0228F5D9032022E0154A53680B
:100D000023F40033A1680B435360DCE7002018E0B4
:100D1000002016E0012B16D00E4B5B6803F48031E7
:100D2000226A914211D103F47013626A93420ED188
:100D3000002006E001207047012002E0012000E0D1
:100D4000002002B070BD0120FBE70120F9E701207F
:100D5000F7E700BF00100240000042420F4B5B6803
:100D600003F00C02082A01D00D487047C3F38342F8
:100D70000C49885C13F4803F0BD0084B5B68C3F3CD
:100D80004043094AD35C064A02FB00F0B0FBF3F093
:100D90007047064B03FB00F0704700BF0010024095
:100DA00000127A00E83D0008E43D000800093D001B
:100DB000002800F0A08070B50D460446524B1B6819
:100DC00003F007038B420BD24F4A136823F007034B
:100DD0000B431360136803F007038B4240F08D80D0
:100DE000236813F0020F17D013F0040F04D0474A02
:100DF000536843F4E0635360236813F0080F04D092
:100E0000424A536843F460535360404A536823F0A6
:100E1000F003A1680B435360236813F0010F31D036
:100E20006368012B20D0022B25D0384A126812F0BB
:100E3000020F64D035494A6822F0030213434B6025
:100E4000FFF7F2FB0646314B5B6803F00C03626868
:100E5000B3EB820F16D0FFF7E7FB801B41F288331C
:100E60009842F0D9032045E0284A126812F4003F66
:100E7000E0D101203EE0254A126812F0007FD9D16E
:100E8000012037E0204B1B6803F00703AB420AD96F
:100E90001D4A136823F007032B431360136803F004
:100EA0000703AB422DD1236813F0040F06D0174A75
:100EB000536823F4E063E1680B435360236813F045
:100EC000080F07D0114A536823F46053216943EA9D
:100ED000C1035360FFF742FF0C4B5B68C3F303137E
:100EE0000B4AD35CD8400B4B18600B4B1868FFF7CC
:100EF0007DFA002070BD012070470120FAE7012033
:100F0000F8E70120F6E700BF002002400010024091
:100F1000D43D00080000002008000020014B1868A4
:100F2000704700BF0000002008B5FFF7F7FF044B33
:100F30005B68C3F30223034AD35CD84008BD00BFFB
:100F400000100240CC3D000808B5FFF7E7FF044B56
:100F50005B68C3F3C223034AD35CD84008BD00BF1B
:100F600000100240CC3D00080F2303600B4B5A6871
:100F700002F0030242605A6802F0F00282605A688E
:100F800002F4E062C2605B68DB0803F4E0630361C3
:100F9000034B1B6803F007030B607047001002400F
:100FA000002002407047000090F83D30012B27D10F
:100FB000022380F83D300268D36843F00103D36018
:100FC0000368114A934210D0B3F1804F0DD0A2F5BF
:100FD0009432934209D002F58062934205D01A6898
:100FE00042F001021A60002070479A6802F007027E
:100FF000062A07D01A6842F001021A6000207047E2
:101000000120704700207047002C01407047704756
:101010007047704770B504460368DE681D6915F0B7
:10102000020F10D016F0020F0DD06FF002021A61FD
:101030000123037703689B6913F0030F5ED0FFF76A
:10104000E6FF0023237715F0040F12D016F0040FEB
:101050000FD023686FF004021A61022323772368FC
:101060009B6913F4407F4FD02046FFF7D0FF002349
:10107000237715F0080F12D016F0080F0FD0236851
:101080006FF008021A61042323772368DB6913F0E9
:10109000030F40D02046FFF7BAFF0023237715F057
:1010A000100F12D016F0100F0FD023686FF010023F
:1010B0001A61082323772368DB6913F4407F31D05A
:1010C0002046FFF7A4FF0023237715F0010F02D07D
:1010D00016F0010F2DD115F0800F02D016F0800F01
:1010E0002FD115F0400F02D016F0400F31D115F07E
:1010F000200F02D016F0200F33D170BDFFF786FF0E
:101100002046FFF785FF9CE72046FFF77FFF20463C
:10111000FFF77EFFABE72046FFF778FF2046FFF79B
:1011200077FFBAE72046FFF771FF2046FFF770FF11
:10113000C9E723686FF001021A612046FFF7E4F85F
:10114000C9E723686FF080021A61204600F081F839
:10115000C7E723686FF040021A612046FFF759FF86
:10116000C5E723686FF020021A61204600F070F88E
:10117000C3E7000003681F4A90420AD0B0F1804FD5
:1011800007D0A2F59432904203D002F580629042DB
:1011900003D123F070034A681343164A90420AD0E1
:1011A000B0F1804F07D0A2F59432904203D002F5FF
:1011B0008062904203D123F44073CA68134323F042
:1011C00080034A69134303608B68C3620B688362C0
:1011D000084B98420AD001234361036913F0010FC1
:1011E00003D0036923F00103036170470B690363B4
:1011F000F1E700BF002C014040B310B5044690F861
:101200003D30F3B1022384F83D30214651F8040B00
:10121000FFF7B0FF012384F8463084F83E3084F8AD
:101220003F3084F8403084F8413084F8423084F80C
:10123000433084F8443084F8453084F83D30002051
:1012400010BD80F83C30FFF7ADFEDBE701207047B2
:1012500070477047026802F10C0353E8003F23F423
:1012600090730C3242E800310029F3D1026802F198
:10127000140353E8003F23F00103143242E8003125
:101280000029F3D1036B012B05D0202380F84230D5
:10129000002303637047026802F10C0353E8003F28
:1012A00023F010030C3242E800310029F3D1ECE7BF
:1012B00010B504460268136923F44053C1680B4318
:1012C000136183680269134342691A430168CB685A
:1012D00023F4B05323F00C031343CB60026853692B
:1012E00023F4407381690B4353610268134B9A42A4
:1012F00020D0FFF719FE024602EB820202EB8202C7
:1013000063689B00B2FBF3F20D48A0FB0231490970
:10131000642303FB11231B013233A0FB03035B098E
:1013200003F0F00202EB011203F00F0321681344F3
:101330008B6010BDFFF708FE0246DDE70038014074
:101340001F85EB512DE9F04383B005460E46174645
:101350009946DDF828802B681C6836EA04040CBF27
:1013600001240024BC4228D1B8F1FF3FF3D0FFF79D
:101370005BF9A0EB0900404523D8B8F1000F22D05B
:101380002B68DA6812F0040FE5D0802EE3D0402EEF
:10139000E1D01A6812F0080FDDD0002401941A6819
:1013A00001925B680193019B2846FFF753FF0823D6
:1013B0006B6485F84040012000E0002003B0BDE8E8
:1013C000F0830320FAE70320F8E760B310B5044682
:1013D00090F8413013B3242384F841302268D36855
:1013E00023F40053D3602046FFF762FF226813699D
:1013F00023F4904313612268536923F02A03536155
:101400002268D36843F40053D36000206064202333
:1014100084F8413084F84230606310BD80F8403079
:10142000FFF782F8D7E7012070472DE9F04182B03D
:101430001E4690F84130202B56D104460D4690466A
:10144000002955D00AB901204FE00023436421232D
:1014500080F84130FFF7E8F80746A4F82480A4F8A4
:101460002680A368B3F5805F02D04FF0000814E037
:1014700023692BB34FF000080FE0202384F841309C
:10148000032032E038F8023B2268C3F308035360BC
:10149000E28C92B2013A92B2E284E38C9BB293B1B5
:1014A00000963B46002280212046FFF74BFF002894
:1014B000E3D1002DE6D015F8012B23685A60E7E749
:1014C000A8460025E9E700963B4600224021204639
:1014D000FFF738FF18B9202384F8413005E02023B6
:1014E00084F84130032000E0022002B0BDE8F08122
:1014F0000120FAE708B54FF0E0231B6901F0C4FCB6
:10150000012800D108BD00F07DFAFBE7EFF3058369
:101510002BB9064B186828B901221A6070476FF082
:10152000050070474FF0FF30704700BFD80700201C
:10153000EFF3058373B90A4B1B68012B0DD110B56E
:101540000024084BDC77064B02221A6001F0F8F900
:10155000204610BD6FF0050070474FF0FF30704718
:10156000D807002000ED00E0F0B587B00024059416
:10157000EFF3058404BBF8B1002A34D015689369F1
:101580002BB11E46013B372B02D9002015E018264F
:10159000536813F0010F3FD1546984B14FEA940CA2
:1015A00093682BB1D7685B2F02D9176907B184B94B
:1015B00043B14FF0FF330BB3059807B0F0BD4FF0C8
:1015C000800CEDE7D368A3B91369ABB14FF0FF33DB
:1015D000F1E70293019700960B466246294601F017
:1015E00041F90590E8E71546002318264FF0800CD6
:1015F000E1E74FF0FF33DEE70023DCE705AB0193C3
:1016000000960B461FFA8CF2294601F066F9012874
:10161000D2D000230593CFE70020CEE708B5EFF343
:10162000058333B908B9002008BD01F0EBFA0020AA
:10163000FAE76FF00500F7E730B583B0EFF3058305
:10164000002B3BD1144600283CD000293CD072B37B
:10165000936853B1D2684F2A07D922692AB101FB96
:1016600000F5D4F814C0AC451BD273B14FF0FF3372
:1016700063BB002200F0DDFC054605B304B124681D
:101680002146284600F02AFF19E0E3688BB9236958
:1016900013B14FF0FF33EBE763696BB14FF0FF33EA
:1016A000E6E70025009500F07AFC0546E5E7002313
:1016B000DEE74FF0FF33DBE70023D9E700252846BC
:1016C00003B030BD0025FAE70025F8E70025F6E76E
:1016D00010B582B01C46EFF30583C3B118B329B32C
:1016E0003CBB0023019301AA00F08BFD012823D10C
:1016F000019850B14FF0E0234FF08052C3F8042D11
:10170000BFF34F8FBFF36F8F002002B010BDB0B199
:10171000C1B10023224600F0B0FC012815D0B4B1BD
:101720006FF00100F1E76FF00300EEE76FF00300E8
:10173000EBE76FF00300E8E76FF00200E5E76FF01A
:101740000300E2E76FF00300DFE70020DDE76FF062
:101750000200DAE710B582B01C46EFF30583C3B18F
:1017600010B321B334BB0023019301AA00F05FFE44
:10177000012822D1019850B14FF0E0234FF0805260
:10178000C3F8042DBFF34F8FBFF36F8F002002B05B
:1017900010BDA8B1B9B1224600F09AFD012815D0BC
:1017A000B4B16FF00100F2E76FF00300EFE76FF004
:1017B0000300ECE76FF00300E9E76FF00200E6E7F3
:1017C0006FF00300E3E76FF00300E0E70020DEE7DF
:1017D0006FF00200DBE70000034B0360034B0B607C
:1017E00080231360704700BF7C0700207C05002029
:1017F000034B0360034B0B604FF48073136070471F
:10180000200500202001002000F1080343604FF074
:10181000FF328260C36003610023036070470023CE
:101820000361704743684B609A688A6051609960B1
:101830000861036801330360704730B40D68B5F187
:10184000FF3F11D000F108031C465B681A68AA42EA
:10185000FAD963684B6099608C60616008610368C5
:101860000133036030BC70470469F2E703694168E3
:1018700082688A60416851605A68824206D00022BC
:1018800002611A68013A1A601868704782685A60E3
:10189000F5E7000082B0002301930D4B1B68B3F104
:1018A000FF3F08D04FF0500383F31188BFF36F8FD1
:1018B000BFF34F8FFEE74FF0500383F31188BFF360
:1018C0006F8FBFF34F8F019B002BFCD002B070478E
:1018D0000C00002006480068006880F3088862B6A3
:1018E00061B6BFF34F8FBFF36F8F00DF00BF000003
:1018F00008ED00E04FF0807340F8043C21F0010156
:1019000040F8081C034B40F80C3C40F8202C4038B1
:10191000704700BF9518000800000000000000009C
:10192000074B19680868B0E8F00F80F30988BFF327
:101930006F8F4FF0000080F311884EF00D0E70474E
:10194000401900204FF0500383F31188BFF36F8FCD
:10195000BFF34F8F0B4A136801331360012B00D084
:1019600070474FF0E023D3F8043D13F0FF0FF7D09A
:101970004FF0500383F31188BFF36F8FBFF34F8F86
:10198000FEE700BF0C000020094B1B6843B94FF075
:10199000500383F31188BFF36F8FBFF34F8FFEE7C0
:1019A000013B034A13600BB983F31188704700BFF2
:1019B0000C000020000000000000000000000000FB
:1019C000EFF30980BFF36F8F0D4B1A6820E9F00F1A
:1019D000106008B54FF0500080F3118801F038F91D
:1019E0004FF0000080F31188BDE8084019680868CE
:1019F000B0E8F00F80F30988BFF36F8F704700BF26
:101A00004019002008B54FF0500383F31188BFF34D
:101A10006F8FBFF34F8F00F0EDFF28B14FF0E02341
:101A20004FF08052C3F8042D002383F3118808BDC2
:101A30004FF0E022002313619361054B1B680549B9
:101A4000A1FB03139B09013B5361072313617047FB
:101A500000000020D34D621010B582B02A4B1A78D6
:101A6000D2B20192FF221A701B78DBB28DF80330DC
:101A70009DF8033003F05003244A1370244B0722CF
:101A80001A6009E0224A1368013B13609DF8033095
:101A90005B00DBB28DF803309DF8033013F0800F4C
:101AA000F0D11B4B1B68032B08D04FF0500383F37E
:101AB0001188BFF36F8FBFF34F8FFEE71B02144AED
:101AC000136003F4E0631360019BDBB20E4A1370F2
:101AD0004FF0E023D3F8202D42F47002C3F8202DFC
:101AE000D3F8202D42F07042C3F8202DFFF7A0FF5D
:101AF0000024084B1C60FFF7EDFE01F0A9F8FFF78A
:101B0000C9FE204602B010BD00E400E0E00700205E
:101B1000DC0700200C000020EFF305830F2B0ED90B
:101B2000114A9A5C114B1B789A4208D24FF050032D
:101B300083F31188BFF36F8FBFF34F8FFEE74FF032
:101B4000E023D3F80C3D03F4E063094A12689342A2
:101B500008D94FF0500383F31188BFF36F8FBFF3A1
:101B60004F8FFEE7704700BFF0E300E0E007002082
:101B7000DC070020124A12F0070F1ED0D11D21F001
:101B80000701C1F5406313440A460E480260002174
:101B900041601344083B23F007030B48036059607E
:101BA0001960991A51601360084B1960084B19604D
:101BB000084B4FF000421A6070474FF44063E4E76F
:101BC00004080020FC070020F8070020F007002090
:101BD000F4070020E4070020154B1A461B688342D7
:101BE000FBD3516802EB010C844509D0416800EB3E
:101BF000010C634509D00360904218D01060704713
:101C00004068014451601046F0E710B4094C246864
:101C1000A3420AD05B681944416013681B680360E3
:101C2000904200D0106010BC70470460F8E7704725
:101C3000FC070020F807002038B5044600F0CCFE71
:101C4000384B1B68B3B1384B1B681C4250D1002C79
:101C500050D004F1080214F0070F02D022F007025E
:101C60000832002A55D0314B1B68934253D3304978
:101C70000C6804E0FFF77EFFE5E721461C46636839
:101C8000934202D22368002BF7D1264B1B68A34254
:101C900043D00D68083523680B6063689B1A102BCE
:101CA00010D9A01810F0070F08D04FF0500383F39D
:101CB0001188BFF36F8FBFF34F8FFEE74360626001
:101CC000FFF78AFF626819490B689B1A0B60194974
:101CD00009688B4201D217490B60134B1B681343F1
:101CE000636000232360144A13680133136002E029
:101CF000002500E0002500F009FF15F0070F0ED0C9
:101D00004FF0500383F31188BFF36F8FBFF34F8FF2
:101D1000FEE70025EFE70025EDE70025EBE7284685
:101D200038BD00BFF8070020E4070020F4070020BA
:101D3000FC070020F0070020EC070020002834D02A
:101D400038B50446A0F1080550F8043C174A12685B
:101D5000134208D14FF0500383F31188BFF36F8F04
:101D6000BFF34F8FFEE750F8081C41B14FF050030E
:101D700083F31188BFF36F8FBFF34F8FFEE723EA22
:101D8000020340F8043C00F027FE54F8041C084A03
:101D900013680B4413602846FFF71EFF054A1368BB
:101DA0000133136000F0B2FE38BD7047E407002035
:101DB000F4070020E807002010B50446FFF7C2FD35
:101DC000A26BE36B9A4204D00024FFF7DDFD2046AE
:101DD00010BD0124F9E710B50446FFF7B3FDA36B6E
:101DE00023B90124FFF7D0FD204610BD0024F9E7F8
:101DF00070B504461546866B026C5AB903681BB170
:101E000000200136A66370BD806801F04DF8002304
:101E1000A360F6E76DB9406801F00EFB6368226CC1
:101E200013446360A268934219D323686360284611
:101E3000E7E7C06801F000FBE368226C51429B1A9F
:101E4000E3602268934202D2A3680B44E360022D50
:101E500001D00020D5E726B1013E0020D1E7284679
:101E6000CFE70020CDE708B50346026C62B1084613
:101E7000D9681144D960D3F808C0614501D3196805
:101E8000D960D96801F0D8FA08BD38B50546FFF722
:101E900059FD95F8454064B201E0013C64B2002C64
:101EA0000ADD6B6A43B105F1240000F051FF002800
:101EB000F3D000F0E3FFF0E7FF2385F84530FFF7AC
:101EC00063FDFFF73FFD95F8444064B201E0013C3B
:101ED00064B2002C0ADD2B6943B105F1100000F05B
:101EE00037FF0028F3D000F0C9FFF0E7FF2385F8A3
:101EF0004430FFF749FD38BD38B5E0B10D46044622
:101F0000FFF720FD2368E26B216C01FB0230A0602B
:101F10000020A0636360013A02FB0133E360FF230A
:101F200084F8443084F84530FDB9236963B9FFF77C
:101F30002BFD012038BD4FF0500383F31188BFF310
:101F40006F8FBFF34F8FFEE704F1100000F000FF2A
:101F50000028ECD04FF0E0234FF08052C3F8042D5E
:101F6000BFF34F8FBFF36F8FE1E704F11000FFF76E
:101F70004BFC04F12400FFF747FCD8E738B51D46B9
:101F8000049C0B4649B92460E06323640121204688
:101F9000FFF7B2FF84F84C5038BD2260F4E740B937
:101FA0004FF0500383F31188BFF36F8FBFF34F8F50
:101FB000FEE710B584B01C46844653B192B189B98E
:101FC0004FF0500383F31188BFF36F8FBFF34F8F30
:101FD000FEE74FF0500383F31188BFF36F8FBFF319
:101FE0004F8FFEE76AB150230393039B502B13D00E
:101FF0004FF0500383F31188BFF36F8FBFF34F8F00
:10200000FEE70029EFD04FF0500383F31188BFF3B0
:102010006F8FBFF34F8FFEE7039B012384F8463099
:1020200000949DF818306046FFF7A8FF204604B0E2
:1020300010BD40B94FF0500383F31188BFF36F8F89
:10204000BFF34F8FFEE7F0B583B00D46144606464A
:1020500001FB00F05030FFF7EFFD074650B10023C1
:1020600080F846300090234600F150022946304661
:10207000FFF784FF384603B0F0BDF0B585B001929C
:1020800088B10F461D460446B1B1022D20D1E36B45
:10209000012B1DD04FF0500383F31188BFF36F8FD6
:1020A000BFF34F8FFEE74FF0500383F31188BFF368
:1020B0006F8FBFF34F8FFEE7036C002BE5D04FF01F
:1020C000500383F31188BFF36F8FBFF34F8FFEE789
:1020D00000F0DAFE064658B9019B002B48D04FF0BD
:1020E000500383F31188BFF36F8FBFF34F8FFEE769
:1020F00000263DE02A4639462046FFF779FE636A0E
:102100007BB948B14FF0E0234FF08052C3F8042D63
:10211000BFF34F8FBFF36F8FFFF736FC012005B081
:10212000F0BD04F1240000F013FE0028F4D04FF0BD
:10213000E0234FF08052C3F8042DBFF34F8FBFF35D
:102140006F8FE9E7FFF720FC0020E8E702A800F026
:1021500045FE012619E0002384F8443021E00023E5
:1021600084F8453023E02046FFF78FFE00F0CEFCD8
:10217000FFF7E8FBA26BE36B9A42BBD3022DB9D009
:10218000019B002BDED0002EE0D0FFF7FDFB00F01E
:1021900023FCFFF7D7FB94F8442052B2B2F1FF3F83
:1021A000D9D094F8452052B2B2F1FF3FD7D0FFF713
:1021B000EBFB01A902A800F01DFED8B92046FFF7ED
:1021C000FBFD0028CFD0019904F1100000F08CFD38
:1021D0002046FFF75AFE00F099FC0028C8D14FF0C6
:1021E000E0234FF08052C3F8042DBFF34F8FBFF3AD
:1021F0006F8FBDE72046FFF748FE00F087FC002008
:102200008DE72DE9F84390B10F4616461C4605466A
:10221000B1B1022C20D1EB6B012B1DD04FF050033C
:1022200083F31188BFF36F8FBFF34F8FFEE74FF03B
:10223000500383F31188BFF36F8FBFF34F8FFEE717
:10224000036C002BE5D04FF0500383F31188BFF3EC
:102250006F8FBFF34F8FFEE7FFF75EFCEFF3118840
:102260004FF0500383F31188BFF36F8FBFF34F8F8D
:10227000AA6BEB6B9A4206D3022C04D0002088F3A1
:102280001188BDE8F88395F845904FFA89F9AB6B52
:10229000224639462846FFF7ABFDB9F1FF3F06D08D
:1022A00009F101035BB285F845300120E7E76B6A6D
:1022B0000BB90120E3E705F1240000F049FD18B156
:1022C00026B101203060DAE70120D8E70120D6E707
:1022D000F0B585B0019290B10F460446C1B100F04F
:1022E000D3FD064600BB019B002B5ED04FF0500390
:1022F00083F31188BFF36F8FBFF34F8FFEE74FF06B
:10230000500383F31188BFF36F8FBFF34F8FFEE746
:10231000036C002BE3D04FF0500383F31188BFF31D
:102320006F8FBFF34F8FFEE700263EE03946204611
:10233000FFF799FD013DA563236923B9FFF724FB4E
:10234000012005B0F0BD04F1100000F001FD0028EF
:10235000F4D04FF0E0234FF08052C3F8042DBFF3C8
:102360004F8FBFF36F8FE9E7FFF70EFB0020E8E721
:1023700002A800F033FD012621E0002384F8443058
:1023800029E0002384F845302BE02046FFF77DFD4F
:1023900000F0BCFB09E02046FFF777FD00F0B6FB3C
:1023A0002046FFF718FD00283FD1FFF7CBFAA56BB9
:1023B000002DBBD1019B002BD6D0002ED8D0FFF72B
:1023C000E3FA00F009FBFFF7BDFA94F844305BB282
:1023D000B3F1FF3FD1D094F845305BB2B3F1FF3F8A
:1023E000CFD0FFF7D1FA01A902A800F003FD002821
:1023F000D1D12046FFF7EFFC0028C6D0019904F1A7
:10240000240000F071FC2046FFF73FFD00F07EFB4A
:102410000028CAD14FF0E0234FF08052C3F8042DBA
:10242000BFF34F8FBFF36F8FBFE7002089E72DE920
:10243000F843B0B10D4690460446D9B1FFF76CFBA6
:10244000EFF311874FF0500383F31188BFF36F8FC1
:10245000BFF34F8FA66BCEB9002087F31188BDE87C
:10246000F8834FF0500383F31188BFF36F8FBFF3EE
:102470004F8FFEE7036C002BE0D04FF0500383F347
:102480001188BFF36F8FBFF34F8FFEE794F844902E
:102490004FFA89F929462046FFF7E5FC731EA3632E
:1024A000B9F1FF3F06D009F101035BB284F8443073
:1024B0000120D2E723690BB90120CEE704F1100017
:1024C00000F046FC30B1B8F1000F05D00120C8F88B
:1024D0000000C2E70120C0E70120BEE70023072B70
:1024E0000CD8074A52F833200AB10133F7E7044AFF
:1024F00042F8331002EBC30250607047704700BFD0
:102500000414002070B504460D461646FFF71AFA6B
:1025100094F844305BB2B3F1FF3F0DD094F84530EE
:102520005BB2B3F1FF3F0BD0FFF72EFAA36B5BB1A9
:102530002046FFF7AAFC70BD002384F84430EDE785
:10254000002384F84530EFE73246294604F12400A1
:1025500000F0E2FBECE70000084B1B681B6823B9A6
:10256000074B4FF0FF321A607047044B1B68DB6863
:10257000DB685A68024B1A60704700BFB414002031
:102580004C1400202DE9F04780460D461746994629
:10259000089EDDF824A00A9C9200A521206B00F083
:1025A00017FF236B07F18042013A03EB820727F004
:1025B0000707A5B34FF0000CBCF10F0F09D815F8B1
:1025C0000C3004EB0C0282F8343013B10CF1010C26
:1025D000F2E7002384F84330372E00D93726E6622D
:1025E000E66400252565201DFFF719F904F11800A0
:1025F000FFF715F92461C6F13806A66164626565C6
:1026000084F858504A4641463846FFF773F920602F
:10261000BAF1000F01D0CAF80040BDE8F0870023EE
:1026200084F83430D8E7000038B5002407E004EB24
:10263000840293000E481844FFF7E6F80134372C63
:10264000F5D90C4D2846FFF7DFF80B4C2046FFF775
:10265000DBF80A48FFF7D8F80948FFF7D5F809482A
:10266000FFF7D2F8084B1D60084B1C6038BD00BF57
:10267000E0140020CC140020B81400209C1400208A
:102680008814002070140020B4140020B01400201E
:1026900010B50446FFF756F9224A13680133136058
:1026A000214B1B685BB1214B1B686BB91E4B1B6830
:1026B000DA6AE36A9A4207D81B4B1C6004E01A4BA3
:1026C0001C601368012B29D0194A13680133136069
:1026D0006364E06A174B1B68984201D9154B186078
:1026E00000EB8000211D144B03EB8000FFF79AF8EC
:1026F000FFF74AF90D4B1B687BB10B4B1B68DA6A7D
:10270000E36A9A4209D24FF0E0234FF08052C3F8B7
:10271000042DBFF34F8FBFF36F8F10BDFFF784FF02
:10272000D2E700BF6C140020401900206014002084
:102730005014002064140020E014002010B504465A
:1027400090F8593063B1012B11D0022B0ED04FF00D
:10275000500383F31188BFF36F8FBFF34F8FFEE7F2
:10276000006BFFF7EBFA2046FFF7E8FA10BDFFF722
:10277000E5FAFBE70F4B1B68D3B110B5FFF7E2F8A2
:102780000D4BDB68DC68201DFFF770F80B4A1368FF
:10279000013B1360074A1368013B1360FFF7F4F82D
:1027A0002046FFF7CBFF034B1B68002BE6D110BD83
:1027B000704700BF84140020881400206C1400208F
:1027C00008B5FFF7D7FF074B1B68012BF9D94FF06E
:1027D000E0234FF08052C3F8042DBFF34F8FBFF3B7
:1027E0006F8FEEE7E014002070B504460D46174BDE
:1027F0001E68174B18680430FFF738F8B4F1FF3F34
:102800000DD03444124B1B685C60A64210D9114BAA
:1028100018680F4B19680431FFF70FF870BD002DD1
:10282000EFD00B4B196804310B48FEF7FBFFF5E7BF
:102830000A4B1868064B19680431FEF7FEFF084B77
:102840001B68A342EAD9064B1C60E7E76814002026
:1028500040190020B014002070140020B41400208F
:102860004C14002030B587B00B9C7CB10C9DB5B1E9
:102870005C250495049D5C2D1AD04FF0500383F322
:102880001188BFF36F8FBFF34F8FFEE74FF05003F8
:1028900083F31188BFF36F8FBFF34F8FFEE74FF0C5
:1028A000500383F31188BFF36F8FBFF34F8FFEE7A1
:1028B000049D0C9D2C63022485F859400024039448
:1028C000029505AC01940A9C0094FFF75BFE0C98FE
:1028D000FFF7DEFE059807B030BD2DE9F04385B067
:1028E0000746884614461E469000FFF7A5F908B330
:1028F00081465C20FFF7A0F90546A8B1C0F83090EA
:10290000002380F85930039302900D9B01930C9B98
:1029100000933346224641463846FFF733FE2846A9
:10292000FFF7B6FE012007E04846FFF707FA4FF031
:10293000FF3001E04FF0FF3005B0BDE8F08300004C
:1029400010B588B000240594069407AA06A905A826
:10295000FEF742FF059B0293069B019300942346DA
:10296000079A17491748FFF77DFF174B1860C0B14A
:1029700000F04EFB012815D14FF0500383F311886E
:10298000BFF36F8FBFF34F8F104B4FF0FF321A60C2
:102990000F4B01221A600F4B00221A60FFF75CF800
:1029A00003E00020B0F1FF3F01D008B010BD4FF0B0
:1029B000500383F31188BFF36F8FBFF34F8FFEE790
:1029C000543D0008C1270008481400204C14002082
:1029D0006014002068140020024A13680133136059
:1029E000704700BF44140020014B1868704700BFB7
:1029F00068140020F8B53A4B1B68002B69D1394B9D
:102A00001D6801351D60C5B9374B1B681B6843B194
:102A10004FF0500383F31188BFF36F8FBFF34F8FD5
:102A2000FEE7314A1168314B186810601960304A6E
:102A3000136801331360FFF78FFD2E4B1B68AB4209
:102A40003DD900272C4B1B68DB6A03EB83039A00FC
:102A50002A4B9B58012B00D90127294B1B68002BBF
:102A60003CD001273AE001271F4B1B681B6843B38A
:102A70001D4B1B68DB68DC6863689D4226D3261DFE
:102A80003046FEF7F3FEA36A1BB104F11800FEF70F
:102A9000EDFEE36A1B4A1268934201D9194A13609A
:102AA00003EB83039A00314614481044FEF7BAFE44
:102AB000E26A114B1B68DB6A9A42D4D2D4E7002742
:102AC000D2E70C4B4FF0FF321A60BBE7094A1360A4
:102AD000B8E70D4A13680133136000273846F8BD84
:102AE0004414002068140020B4140020B014002006
:102AF000541400204C14002040190020E014002041
:102B000058140020641400205C14002038B5354BA4
:102B10001B6843B94FF0500383F31188BFF36F8FE5
:102B2000BFF34F8FFEE7FEF70DFF2E4B1A68013AF9
:102B30001A601B68002B4FD12B4B1B680BB900246C
:102B40004BE00024294B1B681BB3284BDB68DC6877
:102B500004F11800FEF78AFE251D2846FEF786FEC2
:102B6000E06A234B1B68984201D9214B186000EBA7
:102B7000800029461F4B03EB8000FEF753FEE26AFC
:102B80001D4B1B68DB6A9A42DCD31C4B01221A6086
:102B9000D8E70CB1FFF7E0FC194B1C6884B9174B60
:102BA0001C68D4B14FF0E0234FF08052C3F8042DDD
:102BB000BFF34F8FBFF36F8F01240EE0013C07D0AE
:102BC000FFF718FF0028F9D00C4B01221A60F5E737
:102BD0000B4B00221A60E2E70024FEF7D5FE2046E8
:102BE00038BD00BF441400206C1400209C14002049
:102BF00064140020E0140020401900205814002024
:102C00005C14002010B5A8B10446104B1B6843B1FA
:102C10004FF0500383F31188BFF36F8FBFF34F8FD3
:102C2000FEE7FFF7D9FE00212046FFF7DDFDFFF7A5
:102C30006DFF48B94FF0E0234FF08052C3F8042DE8
:102C4000BFF34F8FBFF36F8F10BD00BF4414002040
:102C5000204B1B681BB1204B01221A6070471E4B92
:102C600000221A601D4B1B6803EB83018A001C497C
:102C70008A585AB90BB1013BF6E74FF0500383F382
:102C80001188BFF36F8FBFF34F8FFEE7084603EB4A
:102C900083018A00024451684968516003EB830C48
:102CA0004FEA8C020832024491420BD003EB8302BC
:102CB00091000B4A0A445268D1680A4A1160074AD7
:102CC00013607047486862469100054A0A445060A4
:102CD000ECE700BF441400205814002064140020C6
:102CE000E01400204019002058B110B50C46094AE4
:102CF00011681831FEF7A1FD01212046FFF774FD90
:102D000010BD4FF0500383F31188BFF36F8FBFF3F3
:102D10004F8FFEE74019002038B570B10D461446BC
:102D20000A4A11681831FEF77DFD0CB14FF0FF35EE
:102D300021462846FFF758FD38BD4FF0500383F376
:102D40001188BFF36F8FBFF34F8FFEE7401900204C
:102D500038B5C368DC6824B304F118052846FEF7CB
:102D600085FD184B1B682BBB251D2846FEF77EFDF5
:102D7000E06A154B1B68984201D9134B186000EBB1
:102D800080002946114B03EB8000FEF74BFDE26A01
:102D90000F4B1B68DB6A9A4211D901200D4B18605A
:102DA00038BD4FF0500383F31188BFF36F8FBFF32B
:102DB0004F8FFEE729460848FEF734FDE7E700207D
:102DC000EEE700BF4414002064140020E01400204B
:102DD00040190020581400209C140020034B1B684D
:102DE0000360034B1B684360704700BF541400200E
:102DF0006814002038B5E0B10C46054611B3FEF763
:102E0000A1FD1C4B19686B68C81A2268B2F1FF3F1C
:102E100029D0DFF864C0DCF800C0D5F800E0E64552
:102E200001D08B4224D9824215D80023236001248B
:102E30001AE04FF0500383F31188BFF36F8FBFF395
:102E40004F8FFEE74FF0500383F31188BFF36F8F6E
:102E5000BFF34F8FFEE75B1A134423602846FFF74A
:102E6000BDFF002400E00024FEF78EFD204638BDA3
:102E70000124F9E76814002054140020014B0122BA
:102E80001A60704758140020054B1B6833B1054B7E
:102E90001B680BB10020704702207047012070476B
:102EA000601400204414002000283BD038B50446AC
:102EB0001E4B1B68834208D04FF0500383F31188E8
:102EC000BFF36F8FBFF34F8FFEE7036D43B94FF032
:102ED000500383F31188BFF36F8FBFF34F8FFEE76B
:102EE000013B0365C16AC26C91421DD00BB1002049
:102EF00038BD051D2846FEF7B9FCE06CE062C0F164
:102F00003803A3610A4B1B68984201D9084B18602B
:102F100000EB80002946074B03EB8000FEF782FCA4
:102F20000120E5E7002070470020E1E7401900207C
:102F300064140020E0140020064B1A6813682BB9B3
:102F40000123036023B9D368186870470023F8E7AA
:102F500000207047441A002008B54160006191428A
:102F60000CD8D21A83699A4201D3012008BD011DF1
:102F7000094B1868FEF761FC0020F7E79A4201D27E
:102F8000994206D2011D054B1868FEF756FC002039
:102F9000ECE70120EAE700BF401A0020441A0020B5
:102FA00030B583B0FEF7CEFC114B1B681BB1FEF7AA
:102FB000EBFC03B030BD0F4D2846FEF725FC0E4C50
:102FC0002046FEF721FC0D4B1D600D4B1C600023BD
:102FD00000930C4B0C4A10210A20FEF7E0FF044B33
:102FE00018600028E3D00949FFF778FADFE700BF4F
:102FF0003C1A00205C1A0020481A0020441A0020C5
:10300000401A002044190020941900205C3D00085B
:1030100010B588B0FFF7C4FF124B1B68CBB100247A
:103020000594069407AA06A905A8FEF7E1FB059BEF
:103030000293069B0193022300932346079A0A49B1
:103040000A48FFF70FFC0A4B186010B1012008B0C6
:1030500010BD4FF0500383F31188BFF36F8FBFF3A0
:103060004F8FFEE73C1A0020643D000875330008CE
:10307000381A0020B8B19C4603461848006858B377
:1030800000B585B000910192029305291CDCFFF781
:10309000FBFE022810D000231A4669460F4800683C
:1030A000FEF7EBFF15E04FF0500383F31188BFF3F9
:1030B0006F8FBFF34F8FFEE70023069A69460748DC
:1030C0000068FEF7DAFF04E0002362466946FFF776
:1030D00098F805B05DF804FB002070473C1A00200A
:1030E00070B582B01B4B1B681A6862B3DB681E6840
:1030F000DC68251D2846FEF7B9FB236A2046984761
:1031000094F8283013F0040FECD0A36933449E42A6
:1031100007D26360246129460E4B1868FEF78DFBC9
:10312000E0E7002100910B4632462046FFF7A2FF60
:103130000028D7D14FF0500383F31188BFF36F8F6E
:10314000BFF34F8FFEE7044A10680249086013601E
:1031500002B070BD441A0020401A002038B5054660
:10316000FFF742FC0446074B1B68834205D8002347
:103170002B60044B1C60204638BDFFF7B1FF0123D4
:103180002B60F6E7341A002070B582B006460D4673
:1031900017490968C968CC68201DFEF767FB94F8D9
:1031A00028C01CF0040F08D12CF0010C84F828C0B2
:1031B000236A2046984702B070BDA16933462A466B
:1031C00031442046FFF7C8FE0028F1D000210091CD
:1031D0000B4632462046FFF74DFF0028E8D14FF05E
:1031E000500383F31188BFF36F8FBFF34F8FFEE758
:1031F000441A002070B582B006460C46FFF7ECFB7F
:1032000001A8FFF7ABFF019B33BB0546E4B9B04211
:1032100013D22246711B124B1868FFF773F9FFF7A0
:1032200075FCD8B94FF0E0234FF08052C3F8042D5D
:10323000BFF34F8FBFF36F8F10E0FFF767FC294696
:103240003046FFF7A1FF09E0064A126812680AB982
:103250000124DEE71C46DCE7FFF758FC02B070BD36
:103260003C1A0020401A002010B588B002E0049BF0
:10327000002B0FDA002204A93D4B1868FFF728F84D
:10328000002872D0049B002BF1DA07990698059B61
:103290009847ECE7069C636913B1201DFEF7E6FA38
:1032A00003A8FFF75BFF0246049B092BE2D8DFE887
:1032B00003F00505052F364E05052F3694F8283006
:1032C00043F0010384F82830059BA1691944204686
:1032D000FFF742FE0028CDD0236A2046984794F895
:1032E000283013F0040FC5D0A269002100910B46CD
:1032F000059802442046FFF7BDFE0028BAD14FF0E2
:10330000500383F31188BFF36F8FBFF34F8FFEE736
:1033100094F8283023F0010384F82830AAE794F8C1
:10332000283043F0010384F828300599A16129B1C0
:10333000034601442046FFF70FFE9BE74FF0500382
:1033400083F31188BFF36F8FBFF34F8FFEE794F8BD
:10335000283013F0020F04D023F0010384F8283042
:1033600088E72046FEF7EAFC84E708B010BD00BFFE
:103370003C1A002000B583B001A8FFF7DDFD0199DC
:10338000FFF738FFFFF770FFF6E700000EB46FF0AD
:10339000004110B500249DB01FAB0290069007912C
:1033A00004910948094953F8042B0591006802A9C2
:1033B00001931B9400F0A4F9029B1C701DB0BDE8A2
:1033C000104003B0704700BF100000200802FFFF4C
:1033D00003460244934200D1704703F8011BF9E70A
:1033E000014B1868704700BF1000002070B5002620
:1033F0000C4D0D4B5B1B9C10A64209D1002600F022
:103400007DFC0A4D0A4B5B1B9C10A64205D170BD8A
:1034100055F8043B98470136EEE755F8043B9847CA
:103420000136F2E7343E0008343E0008343E00081E
:10343000383E0008704770470A44914200F1FF335C
:1034400000D1704710B511F8014B914203F8014FBC
:10345000F9D110BD38B50546002940D051F8043CDB
:103460000C1F002BB8BFE41800F0DEF81C4A1368EC
:1034700033B9636014602846BDE8384000F0DAB81C
:10348000A34208D9206821188B4201BF19685B68E4
:1034900009182160EDE71A465B680BB1A342FAD91F
:1034A00011685018A0420BD1206801445018834283
:1034B0001160E0D118685B68084410605360DAE777
:1034C00002D90C232B60D6E7206821188B4201BF5C
:1034D00019685B680918216063605460CBE738BDE8
:1034E000B41B002070B50F4E0C463168054611B96B
:1034F00000F0B0FB30602146284600F0ABFB431CD7
:1035000003D14FF0FF34204670BDC41C24F00304E7
:10351000A042F8D0211A284600F09CFB0130F2D1DD
:10352000EFE700BFB01B00202DE9F843CD1C25F0CC
:10353000030508350C2D38BF0C25002D064601DB90
:10354000A94204D90C2333600020BDE8F883DFF8DA
:10355000D48000F069F8D8F800301C4644BB2946F6
:103560003046FFF7BFFF431C044658D1D8F800404F
:103570002746002F43D1002C4BD0236839463046D4
:1035800004EB030900F066FB814542D12168304617
:103590006D1A2946FFF7A6FF01303AD023682B4465
:1035A0002360D8F800305A6862BBC8F800700FE09A
:1035B0002268521B20D40B2A17D96119A342256017
:1035C00018BF5960636808BFC8F8001062514B60AB
:1035D000304600F02FF804F10B00231D20F0070007
:1035E000C21A1CBF1B1AA350AFE76268A3420CBFEC
:1035F000C8F800205A60EBE723466468AEE73C4613
:103600007F68B6E71A465B68A342FBD1002353608C
:10361000DEE70C233046336000F00CF894E70560D9
:10362000D6E700BFB41B00200148FFF703BF00BF6F
:10363000AC1B00200148FFF7FEBE00BFAC1B002002
:103640002DE9F0471F468E688246BE420C469046E2
:10365000334653D8B1F90C0010F4906F2BD0656944
:103660002368096905EB4505A3EB010905EBD57551
:103670007B1C6D104B44AB422A4684BF1D462A4634
:10368000430527D511465046FFF74EFF064658B36F
:103690004A462169FFF7D0FEA38923F4906343F0E3
:1036A0008003A38126614E4426603B463E46656109
:1036B000A5EB0905A5601F463A464146206800F083
:1036C000AFFA0020A3689B1BA36023683B442360E0
:1036D000BDE8F087504600F0DBFA06460028E1D14D
:1036E00050462169FFF7B6FE0C23CAF80030A389C3
:1036F0004FF0FF3043F04003A381E9E73E46DBE7AC
:103700002DE9F0471F468B8906461B060D461446D9
:103710009CB010D50B6973B94021FFF705FF2860F5
:10372000286130B90C2333604FF0FF301CB0BDE886
:10373000F08740236B610023099320238DF8293003
:1037400030234FF001080397644F8DF82A30234649
:10375000994613F8012B0AB1252AF9D1B9EB040ACD
:103760000BD05346224629463046FFF769FF013009
:1037700000F0A480099A5244099299F80030002B75
:1037800000F09C8000234FF0FF32CDE9052309F1C2
:103790000109049307938DF853301A934C46052280
:1037A00014F8011B4D4800F065FA049BD0B9D80607
:1037B00044BF20228DF85320190744BF2B228DF8D7
:1037C000532099F800202A2A13D04C4600204FF0AD
:1037D0000A0C079A214611F8013B303B092B49D9C5
:1037E00068B913E0C01B08FA00F01843A146049022
:1037F000D4E7039A111D12680391002A01DB079296
:1038000004E0524243F002030792049323782E2BE4
:103810000AD163782A2B32D1039B02341A1D1B680C
:10382000039243EAE3730593DFF8B490032248461A
:10383000217800F01FFA38B14022049BA0EB090068
:10384000824013430134049314F8011B06222548D7
:103850008DF8281000F00EFA002835D0224818BB49
:10386000039B073323F0070308330393099B0344A7
:1038700009936CE70C4601200CFB0232AAE70023F7
:103880004FF00A0C194601340593204610F8012B1D
:10389000303A092A03D9002BC6D00591C4E7044663
:1038A00001230CFB0121F0E703AB00932A463046CD
:1038B0000E4B04A9AFF30080421CD7D1AB895B0645
:1038C0003FF532AF099831E703AB00932A46304603
:1038D000064B04A900F07EF8EEE700BFF83D0008B3
:1038E000FE3D0008023E00080000000041360008CE
:1038F0002DE9F047164698468A680B6907469342B9
:10390000B8BF1346336091F843200C46DDF8209091
:103910000AB1013333602368990642BF336802332A
:103920003360256815F0060506D104F1190AE3682D
:1039300032689B1AAB422BDC94F843302268003B80
:1039400018BF0123920630D44146384604F14302A1
:10395000C847013023D02368226903F00603042BF3
:1039600014BF002533684FF0000608BFE56804F176
:103970001A0408BFED1A54F8123C08BF25EAE57591
:103980009342C4BF9B1AED18B5421AD1002008E03B
:103990000123524641463846C847013003D14FF013
:1039A000FF30BDE8F0870135C1E73020E11881F82C
:1039B00043005A1C94F845102244023382F8431005
:1039C000C2E70123224641463846C8470130E6D0C7
:1039D0000136D9E72DE9F0430D7E85B0782D90466C
:1039E00007460C4699460C9E01F1430207D8622D0A
:1039F0000AD8002D00F0D780582D00F0BC8004F1CB
:103A0000420684F842503BE0A5F16303152BF6D83B
:103A100001A151F823F000BF713A0008853A00086F
:103A2000FF390008FF390008FF390008FF39000896
:103A3000853A0008FF390008FF390008FF390008FF
:103A4000FF3900088D3B0008AF3A00083F3B0008F3
:103A5000FF390008FF390008AF3B0008FF390008B4
:103A6000AF3A0008FF390008FF390008473B00085B
:103A700033681A1D1B68326004F1420684F8423034
:103A80000123A1E033682068191D3160060601D5C5
:103A90001D6803E04506FBD5B3F90050002D03DA9D
:103AA0002D236D4284F843300A235B4811E02168DE
:103AB0003368080653F8045B02D4490648BFADB228
:103AC0003360237E54486F2B5CD10823002184F897
:103AD00043106668002EA66005DB21682E4321F0A6
:103AE0000401216050D01646B5FBF3F103FB115CD5
:103AF00010F80CC006F801CDAC4663450D46F3D96D
:103B0000082B0BD12368DB0708D52369616899422C
:103B1000DEBF302306F8013C06F1FF36921B22611E
:103B2000434621463846CDF8009003AAFFF7E0FE51
:103B300001304ED14FF0FF3005B0BDE8F08323686F
:103B400043F0200323607825344884F845502368E7
:103B5000316813F0800F51F8045B03D113F0400F6C
:103B600018BFADB23160D90744BF43F020032360D2
:103B70001DB11023AAE72848E7E7236823F02003B4
:103B80002360F6E70A23A1E71646B9E733682568FC
:103B9000181D616930602E061B6801D5196002E0AE
:103BA0006806FBD51980002316462361B8E7336801
:103BB00000211A1D32601E686268304600F05AF813
:103BC00008B1801B606063682361002384F8433080
:103BD000A6E73246414638462369C8470130A9D096
:103BE00023689B0713D4E068039B9842B8BF18462C
:103BF000A2E70123324641463846C847013099D0F2
:103C00000135E36803995B1AAB42F2DCEBE7002570
:103C100004F11906F5E700BF093E00081A3E000846
:103C2000884210B501EB020402D98442234607D82A
:103C3000431EA14207D011F8012B03F8012FF8E72A
:103C40000244824200D110BD13F8011D02F8011D8B
:103C5000F7E7000038B50023054D044608462B6001
:103C6000FCF722FC431C02D12B6803B1236038BD52
:103C7000A81B0020034610B5C9B20244934218465F
:103C800001D1002003E0047801338C42F6D110BD4D
:103C90002DE9F041074614460D4621B91146BDE80D
:103CA000F041FFF741BC2AB9FFF7D4FB254628466F
:103CB000BDE8F08100F01AF88442064602D8B4EB61
:103CC000500FF4D821463846FFF72EFC804608B93D
:103CD0004546ECE7B4422246294628BF3246FFF764
:103CE000ABFB29463846FFF7B5FBF1E751F8043C3A
:103CF000181F002BBCBF0B58C0187047F8B500BF89
:103D0000F8BC08BC9E467047F8B500BFF8BC08BCBC
:043D10009E46704714
:103D1400E68C89E994AE3A20256420E6ACA12C20F7
:103D2400E695B0E68DAE3A202564E6ACA10000002D
:103D340042746E51756575650000000044617461DC
:103D44005461736B0000000042746E5461736B0025
:103D540049444C4500000000546D725100000000BD
:103D6400546D722053766300343D00080000000057
:103D7400000000000000000000000000000000003F
:103D8400403D0008000000000000000000000000AA
:103D94000000000000020000080000000000000015
:103DA400000000004C3D000800000000000000007E
:103DB40000000000000000000002000018000000E5
:103DC40000000000000000000000000001020304E5
:103DD40000000000000000000102030406070809B7
:103DE4000102000002030405060708090A0B0C0D72
:103DF4000E0F1010232D302B2000686C4C006566CC
:103E04006745464700303132333435363738394127
:103E1400424344454600303132333435363738393D
:083E2400616263646566000041
:083E2C00E4C2FF7F0100000069
:043E340089010008F8
:043E3800610100081C
:103E3C0000127A000100000010000000AAAAAAAA31
:103E4C001400002000000000701A0020D81A002076
:103E5C00401B0020000000000000000000000000DB
:103E6C000000000000000000000000000000000046
:103E7C000000000000000000000000000000000036
:103E8C000000000000000000000000000000000026
:04000005080005A149
:00000001FF
